S00F00004932433243414E2E7372656353
S11300000C944A000C945C000C945C000C945C000E
S11300100C945C000C945C000C945C000C945C00EC
S11300200C945C000C945C000C945C000C945C00DC
S11300300C945C000C945C000C945C000C94F8052B
S11300400C945C000C945C000C94FD000C948101F5
S11300500C945C000C945C000C945C000C945C00AC
S11300600C945C000C945C000C945C000C945C009C
S11300700C945C000C945C000C945C007E6E7F62BB
S11300800C37260C37120C370E0C37060C37020CC3
S113009037000C3611241FBECFEFD4E0DEBFCDBF36
S11300A023E0A0E0B1E001C01D92AB30B207E1F75C
S11300B00E9435050C9474060C9400008091040190
S11300C08823D1F01092ED008091EF00807C69F0DC
S11300D081E0ADEEB0E0EFEEF0E0982F9295907FE6
S11300E09C939081907C19F4089580E008958F5F2B
S11300F0863099F78FEF08958FEF0895883080F454
S1130100EEEDF0E0408121E030E0B90102C0660F7D
S1130110771F8A95E2F7CB01809584238083089525
S1130120EFEDF0E04081885021E030E0B90102C0F9
S1130130660F771F8A95E2F7CB018095842380832D
S11301400895883078F4EEEDF0E0408121E030E06D
S1130150B90102C0660F771F8A95E2F7CB01842BA1
S113016080830895EFEDF0E04081885021E030E095
S1130170B90102C0660F771F8A95E2F7CB01842B81
S113018080830895CF93DF93883098F5C8EDD0E04D
S113019098819160988390E0FC01EE0FFF1F8E0F11
S11301A09F1FFC01E458FF4FE491E093E200FC013F
S11301B0E358FF4FE491E093E300FC01E258FF4F62
S11301C084918093E4001092DA0080EB8093DB004A
S11301D087EC8093E5008FEF0E948B0145E051E0AE
S11301E060E285E093E00E941C0482E0888381E061
S11301F001C080E0DF91CF9108951F920F920FB656
S11302000F9211242F933F934F935F936F937F9398
S11302108F939F93AF93BF93CF93EF93FF9380916B
S1130220EC00807F803F09F456C0ADEEB0E0CC9185
S1130230ECEEF0E08081807F8C9380819091EE00E1
S113024096FF30C082958F70EEEEF0E090811082C0
S11302501092EF00909104019F5F90930401883005
S113026080F4EEEDF0E0408121E030E0B90102C01D
S1130270660F771F8A95E2F7CB01809584238083EC
S113028027C0EFEDF0E04081885021E030E0B90173
S113029002C0660F771F8A95E2F7CB01809584230D
S11302A0808316C085E093E00E943204009731F009
S11302B00E94E80185E093E00E944704EEEEF0E03E
S11302C080811082EFEEF0E080818071806880830D
S11302D0C093ED0004C0EAEDF0E080818083FF91DB
S11302E0EF91CF91BF91AF919F918F917F916F913A
S11302F05F914F913F912F910F900FBE0F901F90E0
S113030018951F920F920FB60F9211240F900FBEE3
S11303100F901F901895CF93DF938630E8F08F3FAE
S113032009F052C01092DF001092DE0080E0CDEEA2
S1130330D0E0AFEEB0E0EEEEF0E0982F9295907F33
S113034098839C911C92908110828F5F8630A9F7CC
S11303508093040181E039C090E89093D800E9EDDE
S1130360F0E0908193FDFDCF1092D800E9EDF0E02C
S1130370908192FDFDCF982F9295907FCDEED0E0A5
S11303809883EEEEF0E0908110821092EF000E94CC
S11303907E00288180E0ADEEB0E0EFEEF0E0982F33
S11303A09295907F9C93908190838F5F8630B9F76C
S11303B02093ED0082E08093D800E9EDF0E08081A5
S11303C082FFFDCF81E001C080E0DF91CF910895ED
S11303D00F931F93CF93DF9300D000D0CDB7DEB738
S11303E08C018091EF00982F9F70D80115969C93F3
S11303F084FF21C08091F00089838091F1008A8379
S11304008091F2008B838091F3008C8349815A811F
S11304106B817C81689412F876956795579547951A
S11304201694D1F7F80140835183628373838481E6
S1130430826084831DC08091F200829586958770C6
S11304404091F30050E0440F551F440F551F440FD3
S1130450551F482B60E070E0D8014D935D936D9378
S11304607C93139714968C9114978D7F14968C9388
S11304708091F00082FF05C0F8018481816084834B
S11304801DC0D80114968C9114978E7F14968C936A
S11304901497C801069615962C91222379F0482FBB
S11304A0E82FF92F2AEF30E0D9018C9181938E2F18
S11304B0841BD80115969C918917B0F38091F8009C
S11304C09091F900F801978786870F900F900F900D
S11304D00F90DF91CF911F910F9108950F931F9368
S11304E0CF93DF9300D000D0CDB7DEB78C01DC0111
S11304F015968C9115978093EF0014968C91149710
S113050081FF29C0EFEEF0E08081806180838C91CF
S1130510880F880F880F8093F0004D915D916D9145
S11305207C91440F551F661F771F440F551F661F8C
S1130530771F440F551F661F771F49835A836B83A8
S11305407C838A818093F1008B818093F2008C817B
S11305508093F30015C01092F0001092F100F8019E
S113056080818295880F807E8093F20080819181C2
S11305709695879596958795969587958093F3009C
S1130580D80114968C9180FF06C0E0EFF0E08081E2
S11305908460808315C0C8010696F8012581222352
S11305A079F0482FE82FF92F2AEF30E08191D90113
S11305B08C938E2F841BD80115969C918917B0F3C8
S11305C00F900F900F900F90DF91CF911F910F918B
S11305D008950F931F93CF938C010E945E00C82F40
S11305E08630F0F48295807F8093ED00EEEEF0E0AB
S11305F080811082C8010E946E028C2F0E94A1008B
S11306009FB7F894809104018150809304019FBFA7
S1130610EFEEF0E080818064808381E08C0F01C084
S113062080E0CF911F910F910895DB01863008F08F
S113063001C190E89093D800E9EDF0E0908193FD3A
S1130640FDCF1092D800E9EDF0E0908192FDFDCF4E
S1130650982F9295907F9093ED001092EE00109257
S1130660EF0018969C9118979C709C3009F076C006
S11306709C91990F990F990F9093F0004D915D9172
S11306806D917C911397689414F8769567955795B6
S113069047951694D1F74093F1004D915D916D917A
S11306A07C911397032E3DE0769567955795479572
S11306B03A95D1F7302D4093F2004D915D916D91B3
S11306C07C911397032E35E1769567955795479559
S11306D03A95D1F7302D4093F30014969C911497DA
S11306E0990F990F990F91609093F40014964D917E
S11306F05D916D917C911797689414F87695679540
S1130700579547951694D1F74093F50014964D915B
S11307105D916D917C911797032E3DE076956795D9
S1130720579547953A95D1F7302D4093F600149696
S11307304D915D916D917C911797032E35E17695DE
S11307406795579547953A95D1F7302D4093F70023
S1130750EFEEF0E090819061908336C01092F0004B
S11307601092F1009C919295990F907E9093F200D3
S11307702D913C9111973695279536952795369569
S113078027952093F30018969C9118979C7021F05C
S113079091E09093F40002C01092F4001092F500DE
S11307A014969C9114979295990F907E9093F600CD
S11307B014962D913C911597369527953695279546
S11307C0369527952093F70018969C91189791FFDA
S11307D00EC0E4EFF0E090819460908318969C91B1
S11307E090FF05C0E0EFF0E0908194609083EFEE1D
S11307F0F0E09081906890830E94A1002091ED0028
S113080080E0ADEEB0E0EFEEF0E0982F9295907FAF
S11308109C93908190838F5F8630B9F72093ED008D
S113082082E08093D800E9EDF0E0808182FFFDCF83
S113083081E0089580E00895FC018FB7F894628305
S1130840518340831482158213828FBF08953FB76A
S1130850F894FC01238192813FBF81E0291708F4B9
S113086080E00895CF93DF93EC010E942704811167
S113087009C02C818881998130E1239F800D911DCD
S1130880112402C080E090E0DF91CF910895FC0133
S11308909FB7F89483818F5F838384818F5F848380
S11308A02281821708F014829FBF08958BB180744F
S11308B08BB98BB180718BB956985498089554981C
S11308C085E090E0FC013197F1F7569A0197F1F732
S11308D00895569A85E090E0FC013197F1F7549819
S11308E0E3E0F0E03197F1F756980197F1F70895B6
S11308F098E043E050E025E030E0549AFA01319763
S1130900F1F7882314F4569801C0569AF9013197E7
S1130910F1F75498F9013197F1F74C9BFECF880F0A
S1130920915059F7549A83E090E00197F1F7569863
S113093085E090E0FC013197F1F75498FC01319780
S1130940F1F729B1549A0197F1F726FB882780F92A
S113095091E089270895982F20E030E080E045E079
S113096050E0A0E8B0E0549AFA013197F1F75498B6
S1130970FA013197F1F74C9BFECF4E9B08C0BD01A5
S1130980022E02C0759567950A94E2F7862B2F5FB5
S11309903F4F2830310539F7549AE3E0F0E03197BE
S11309A0F1F7992311F0569A01C0569825E030E0EA
S11309B0F9013197F1F75498F9013197F1F7549A05
S11309C0F9013197F1F7569808950F931F93CF9338
S11309D0DF93CDB7DEB729970FB6F894DEBF0FBE0D
S11309E0CDBF86E00E94C2008E010F5F1F4F89E0D9
S11309F0F80111928A95E9F7B80180E00E94150385
S1130A00B80181E00E941503B80182E00E94150339
S1130A1084B1886184B980E090E029960FB6F89497
S1130A20DEBF0FBECDBFDF91CF911F910F9108950F
S1130A30CF93DF93C82FD62F0E945F04CC0F8C2F47
S1130A400E9478048D2F0E9478040E945F0481E044
S1130A508C0F0E94780480E00E94AB04C82F0E948F
S1130A6069048C2FDF91CF910895CF93DF93CDB795
S1130A70DEB7C25DD1090FB6F894DEBF0FBECDBF9D
S1130A808D818D7F8E7F8D8388E08E830E941D06ED
S1130A900E94E5040E94560478949DE088E10FB614
S1130AA0F894A895809360000FBE90936000A89579
S1130AB0812C912C5401CF52DF4F1882C15DD0405C
S1130AC0CE52DF4F1882C25DD0407501640184E6C6
S1130AD0C80ED11CE11CF11CA8950E9434064B01E0
S1130AE05C01C616D706E806F906B0F7FE01719652
S1130AF07F01CE0142962C01E058FF4F1F0100E018
S1130B0010E0C12CD12C09C0FFEFCF1ADF0A82E01C
S1130B10E80EF11C92E0490E511C602E702E770CE9
S1130B2060E8670D88E60E941805F701808361E894
S1130B30670D88E60E941805F2018083F701208181
S1130B4090E0982F8827820F911D929582958F703F
S1130B5089279F708927F10181931F010F5F1F4F20
S1130B607E80672D70E0C8010E944C06892BE1F558
S1130B70CC2051F2862D672D0E94400690E093957B
S1130B80A0E0B0E089839A83AB83BC83772041F1F2
S1130B90F601E719F10981E990E08C0F9D1FE80F38
S1130BA0F91FDE011796CF52DF4F4881C15DD04057
S1130BB0CE52DF4F5881C25DD040219130E0CA014E
S1130BC0880F991F880F991F880F991F02C03595A8
S1130BD027958A95E2F72D934F5F5F4F471568F38A
S1130BE0CE0101960E94E902003408F48DCF6DCF46
S1130BF01F920F920FB60F9211248F939F93AF936E
S1130C00BF938091000190910101A0910201B091E4
S1130C1003010196A11DB11D809300019093010170
S1130C20A0930201B0930301BF91AF919F918F9163
S1130C300F900FBE0F901F90189510920001109204
S1130C40010110920201109203019FB7F89482E00F
S1130C5084BD83E085BD89EF87BDEEE6F0E0808149
S1130C60826080839FBF08952FB7F894609100013C
S1130C707091010180910201909103012FBF0895A9
S1130C80991B79E004C0991F961708F0961B881FDA
S1130C907A95C9F78095089597FB072E16F400946A
S1130CA007D077FD09D00E94600607FC05D03EF40A
S1130CB0909581959F4F0895709561957F4F089504
S1130CC0AA1BBB1B51E107C0AA1FBB1FA617B7076E
S1130CD010F0A61BB70B881F991F5A95A9F780958A
S10F0CE09095BC01CD010895F894FFCF5D
S9030000FC
