:100000000C944A000C945C000C945C000C945C0012
:100010000C945C000C945C000C945C000C945C00F0
:100020000C945C000C945C000C945C000C945C00E0
:100030000C945C000C945C000C945C000C94C50562
:100040000C945C000C945C000C94FD000C948101F9
:100050000C945C000C945C000C945C000C945C00B0
:100060000C945C000C945C000C945C000C945C00A0
:100070000C945C000C945C000C945C007E6E7F62BF
:100080000C37260C37120C370E0C37060C37020CC7
:1000900037000C3611241FBECFEFD4E0DEBFCDBF3A
:1000A00023E0A0E0B1E001C01D92AB30B207E1F760
:1000B0000E9436050C940D060C94000080910401FA
:1000C0008823D1F01092ED008091EF00807C69F0E0
:1000D00081E0ADEEB0E0EFEEF0E0982F9295907FEA
:1000E0009C939081907C19F4089580E008958F5F2F
:1000F000863099F78FEF08958FEF0895883080F458
:10010000EEEDF0E0408121E030E0B90102C0660F81
:10011000771F8A95E2F7CB01809584238083089529
:10012000EFEDF0E04081885021E030E0B90102C0FD
:10013000660F771F8A95E2F7CB0180958423808331
:100140000895883078F4EEEDF0E0408121E030E071
:10015000B90102C0660F771F8A95E2F7CB01842BA5
:1001600080830895EFEDF0E04081885021E030E099
:10017000B90102C0660F771F8A95E2F7CB01842B85
:1001800080830895CF93DF93883098F5C8EDD0E051
:1001900098819160988390E0FC01EE0FFF1F8E0F15
:1001A0009F1FFC01E458FF4FE491E093E200FC0143
:1001B000E358FF4FE491E093E300FC01E258FF4F66
:1001C00084918093E4001092DA0080EB8093DB004E
:1001D00087EC8093E5008FEF0E948B0145E051E0B2
:1001E00060E285E093E00E941C0482E0888381E065
:1001F00001C080E0DF91CF9108951F920F920FB65A
:100200000F9211242F933F934F935F936F937F939C
:100210008F939F93AF93BF93CF93EF93FF9380916F
:10022000EC00807F803F09F456C0ADEEB0E0CC9189
:10023000ECEEF0E08081807F8C9380819091EE00E5
:1002400096FF30C082958F70EEEEF0E090811082C4
:100250001092EF00909104019F5F90930401883009
:1002600080F4EEEDF0E0408121E030E0B90102C021
:10027000660F771F8A95E2F7CB01809584238083F0
:1002800027C0EFEDF0E04081885021E030E0B90177
:1002900002C0660F771F8A95E2F7CB018095842311
:1002A000808316C085E093E00E943204009731F00D
:1002B0000E94E80185E093E00E944704EEEEF0E042
:1002C00080811082EFEEF0E0808180718068808311
:1002D000C093ED0004C0EAEDF0E080818083FF91DF
:1002E000EF91CF91BF91AF919F918F917F916F913E
:1002F0005F914F913F912F910F900FBE0F901F90E4
:1003000018951F920F920FB60F9211240F900FBEE7
:100310000F901F901895CF93DF938630E8F08F3FB2
:1003200009F052C01092DF001092DE0080E0CDEEA6
:10033000D0E0AFEEB0E0EEEEF0E0982F9295907F37
:1003400098839C911C92908110828F5F8630A9F7D0
:100350008093040181E039C090E89093D800E9EDE2
:10036000F0E0908193FDFDCF1092D800E9EDF0E030
:10037000908192FDFDCF982F9295907FCDEED0E0A9
:100380009883EEEEF0E0908110821092EF000E94D0
:100390007E00288180E0ADEEB0E0EFEEF0E0982F37
:1003A0009295907F9C93908190838F5F8630B9F770
:1003B0002093ED0082E08093D800E9EDF0E08081A9
:1003C00082FFFDCF81E001C080E0DF91CF910895F1
:1003D0000F931F93CF93DF9300D000D0CDB7DEB73C
:1003E0008C018091EF00982F9F70D80115969C93F7
:1003F00084FF21C08091F00089838091F1008A837D
:100400008091F2008B838091F3008C8349815A8123
:100410006B817C81689412F876956795579547951E
:100420001694D1F7F80140835183628373838481EA
:10043000826084831DC08091F200829586958770CA
:100440004091F30050E0440F551F440F551F440FD7
:10045000551F482B60E070E0D8014D935D936D937C
:100460007C93139714968C9114978D7F14968C938C
:100470008091F00082FF05C0F8018481816084834F
:100480001DC0D80114968C9114978E7F14968C936E
:100490001497C801069615962C91222379F0482FBF
:1004A000E82FF92F2AEF30E0D9018C9181938E2F1C
:1004B000841BD80115969C918917B0F38091F800A0
:1004C0009091F900F801978786870F900F900F9011
:1004D0000F90DF91CF911F910F9108950F931F936C
:1004E000CF93DF9300D000D0CDB7DEB78C01DC0115
:1004F00015968C9115978093EF0014968C91149714
:1005000081FF29C0EFEEF0E08081806180838C91D3
:10051000880F880F880F8093F0004D915D916D9149
:100520007C91440F551F661F771F440F551F661F90
:10053000771F440F551F661F771F49835A836B83AC
:100540007C838A818093F1008B818093F2008C817F
:100550008093F30015C01092F0001092F100F801A2
:1005600080818295880F807E8093F20080819181C6
:100570009695879596958795969587958093F300A0
:10058000D80114968C9180FF06C0E0EFF0E08081E6
:100590008460808315C0C8010696F8012581222356
:1005A00079F0482FE82FF92F2AEF30E08191D90117
:1005B0008C938E2F841BD80115969C918917B0F3CC
:1005C0000F900F900F900F90DF91CF911F910F918F
:1005D00008950F931F93CF938C010E945E00C82F44
:1005E0008630F0F48295807F8093ED00EEEEF0E0AF
:1005F00080811082C8010E946E028C2F0E94A1008F
:100600009FB7F894809104018150809304019FBFAB
:10061000EFEEF0E080818064808381E08C0F01C088
:1006200080E0CF911F910F910895DB01863008F093
:1006300001C190E89093D800E9EDF0E0908193FD3E
:10064000FDCF1092D800E9EDF0E0908192FDFDCF52
:10065000982F9295907F9093ED001092EE0010925B
:10066000EF0018969C9118979C709C3009F076C00A
:100670009C91990F990F990F9093F0004D915D9176
:100680006D917C911397689414F8769567955795BA
:1006900047951694D1F74093F1004D915D916D917E
:1006A0007C911397032E3DE0769567955795479576
:1006B0003A95D1F7302D4093F2004D915D916D91B7
:1006C0007C911397032E35E176956795579547955D
:1006D0003A95D1F7302D4093F30014969C911497DE
:1006E000990F990F990F91609093F40014964D9182
:1006F0005D916D917C911797689414F87695679544
:10070000579547951694D1F74093F50014964D915F
:100710005D916D917C911797032E3DE076956795DD
:10072000579547953A95D1F7302D4093F60014969A
:100730004D915D916D917C911797032E35E17695E2
:100740006795579547953A95D1F7302D4093F70027
:10075000EFEEF0E090819061908336C01092F0004F
:100760001092F1009C919295990F907E9093F200D7
:100770002D913C911197369527953695279536956D
:1007800027952093F30018969C9118979C7021F060
:1007900091E09093F40002C01092F4001092F500E2
:1007A00014969C9114979295990F907E9093F600D1
:1007B00014962D913C91159736952795369527954A
:1007C000369527952093F70018969C91189791FFDE
:1007D0000EC0E4EFF0E090819460908318969C91B5
:1007E00090FF05C0E0EFF0E0908194609083EFEE21
:1007F000F0E09081906890830E94A1002091ED002C
:1008000080E0ADEEB0E0EFEEF0E0982F9295907FB3
:100810009C93908190838F5F8630B9F72093ED0091
:1008200082E08093D800E9EDF0E0808182FFFDCF87
:1008300081E0089580E00895FC018FB7F894628309
:10084000518340831482158213828FBF08953FB76E
:10085000F894FC01238192813FBF81E0291708F4BD
:1008600080E00895CF93DF93EC010E94270481116B
:1008700009C02C818881998130E1239F800D911DD1
:10088000112402C080E090E0DF91CF910895FC0137
:100890009FB7F89483818F5F838384818F5F848384
:1008A0002281821708F014829FBF08958BB1817056
:1008B0008BB98BB182708BB950985198089551982B
:1008C00085E090E0FC013197F1F7509A0197F1F73C
:1008D0000895509A85E090E0FC013197F1F7519826
:1008E000E3E0F0E03197F1F750980197F1F70895C0
:1008F00098E043E050E025E030E0519AFA0131976A
:10090000F1F7882314F4509801C0509AF9013197F7
:10091000F1F75198F9013197F1F7499BFECF880F14
:10092000915059F7519A83E090E00197F1F7509870
:1009300025E030E0C9010197F1F75198C90101970D
:10094000F1F789B1519AF9013197F1F780958170EA
:100950000895982F20E030E080E045E050E0A0E8E6
:10096000B0E0519AFA013197F1F75198FA013197B5
:10097000F1F7499BFECF489B08C0BD01022E02C083
:10098000759567950A94E2F7862B2F5F3F4F2830C5
:10099000310539F7519AE3E0F0E03197F1F7992307
:1009A00011F0509A01C0509825E030E0F9013197DC
:1009B000F1F75198F9013197F1F7519AF90131970F
:1009C000F1F750980895CF93DF93C82FD62F0E9448
:1009D0005F04CC0F8C2F0E9478048D2F0E94780426
:1009E0000E945F0481E08C0F0E94780480E00E94E6
:1009F000A904C82F0E9469048C2FDF91CF9108951C
:100A00000F931F93CF93DF93CDB7DEB729970FB620
:100A1000F894DEBF0FBECDBF86E00E94C2008E01FB
:100A20000F5F1F4F89E0F80111928A95E9F7B8012D
:100A300080E00E941503B80181E00E941503B8010F
:100A400082E00E94150384B1886184B985B1886110
:100A500085B980E090E029960FB6F894DEBF0FBE0E
:100A6000CDBFDF91CF911F910F910895CF93DF9369
:100A7000CDB7DEB7C059D1090FB6F894DEBF0FBEAF
:100A8000CDBF8D818D7F8E7F8D8388E08E830E9488
:100A9000EA050E9400050E94560478949DE088E1D2
:100AA0000FB6F894A895809360000FBE90936000F5
:100AB000A895812C912C5401312C22242394C12CF3
:100AC0007E018FE0E80EF11C6894DD24D5F8240146
:100AD000350194E6490E511C611C711CA8950E94B9
:100AE00001064B015C014616570668067906B0F709
:100AF0008E010E5E1F4F432C542C550C60E8650D83
:100B000089E60E94E304F8013197808361E8650D6E
:100B100089E60E94E304F801808343940E5F1F4F2F
:100B2000F0E44F12E9CF3E9A88B18F2788B98E0141
:100B30000F5E1F4F412C522C612C7C2C49825A8213
:100B40006B827C82DE011796F80180813296880FD5
:100B5000880F880F8D93AE15BF05B9F7CE010196AA
:100B60000E94E9023D9A88B18D2588B98FEF481A15
:100B7000580A680A780A005F1F4F97E0491691E00B
:100B8000590661047104D1F6A2CF1F920F920FB6DD
:100B90000F9211248F939F93AF93BF938091000185
:100BA00090910101A0910201B09103010196A11D54
:100BB000B11D8093000190930101A0930201B093B5
:100BC0000301BF91AF919F918F910F900FBE0F9036
:100BD0001F901895109200011092010110920201CD
:100BE000109203019FB7F89482E084BD83E085BD35
:100BF00089EF87BDEEE6F0E08081826080839FBF51
:100C000008952FB7F89460910001709101018091CF
:0E0C10000201909103012FBF0895F894FFCFC9
:00000001FF
